S02B00002F2F535256412F486F6D6573242F6368656E633136362F446F63756D656E74732F6769742F496D6184
S21400002004FFFFDE1500C0DF34C8FF04040BCC9CC1
S2140000301700809C4C00809434C8BF020440805255
S214000040F4014003048A466B1701C0520C40C05AA4
S214000050262500581700C0520C00205B26220060A0
S2140000604C00005B0C08C0590C04005A1700C05224
S214000070CC3FC05A1700806B2601004006010000E6
S2140000803A88975B3AC8D7721500C06A0401406B7D
S2140000901700C052CC3FC05A1700806B26010038AC
S2140000A0060100003A88975B3AC8D7721500C06A06
S2140000B034C8FF040408CC9C44008000C0450000FF
S2140000C040610000405800003500809834C8FF04A6
S2140000D00409CC9C44008000C0450000406100003C
S2140000E040580000350080981700C0DF0401C0DECD
S20C0000F004FF7FEF3A0880EFE1
S21400020004FCFFDE150000DC150140DC150280DC76
S2140002101503C0DCCC070024E40000847AD1222039
S214000220CC0F408CA401408CFAD22420CC078094BA
S214000230240180943A8867843A88E794840380008F
S2140002403A20A798C4078000160BC0143A88059871
S2140002507A9104103AB08498BA9104103AB084980F
S214000260170000DC170140DC170280DC1703C0DC37
S2140002700404C0DE3A2800F8C407C00406F33F00B2
S21400028004F8FFDE1500C0DF150100D9150240D9BD
S214000290150300DC150440DC150580DC1506C0DC03
S2140002A0150700DD3A8827203A882928CC07009CC5
S2140002B03A8821853A880980C407400180330000C7
S2140002C03A8821207AD12298CC0F408C3A88238D08
S2140002D03A880988C40F4001803300003A882320FA
S2140002E0FAD22498CC0780943A8825953A880990C3
S2140002F0C4074001803300003A8825203A880590DC
S214000300BA9104103AB084887A9104103AB0848086
S2140003101700C0DF170100D9170240D9170300DC09
S214000320170440DC170580DC1706C0DC170700DD65
S2140003300408C0DE3A2800F816020020160300293A
S2140003403A2800F80400000106FD3F003A88092814
S21400035006FB3F0004FCFFDE150000DC150140DC58
S214000360150280DC1503C0DCCC07002404F83F84AB
S2140003703A386181040800847AD12220CC0F408C60
S21400038004F07F8C3A3863890410408CFAD224201B
S214000390CC07809404F8BF943A386591040880949A
S2140003A03A880590BA9104103AB084887A9104107D
S2140003B03AB08480170000DC170140DC170280DCAE
S2140003C01703C0DC0404C0DE3A2800F834C8FF0077
S2140003D00409CC183400000104C0012135000019BE
S2140003E03400C1060400C0DEF4018002048A86528E
S2140003F0041E40020D004052042840020D014052E7
S21400040004008001004B0000C0450000405800007A
S21400041040610000C041000006FF3F0034C8BF0234
S214000420044080524400C0023501C05204208002BD
S2140004304400C002FA7001503A70015834C8BF0236
S21400044004408052043DC0021500C052843E0003A2
S2140004503700C0521EFEFF623A2800F8340002043D
S21400046004000084B400400404C0578C043C4005DB
S2140004700400C0020450C004040040020F00008DB7
S214000480A400004A2400C1593A880F3A3A88E1810C
S2140004902D0000853AC8E1818400408C4400404A23
S2140004A01EF6FF4C4400C05A1EF2FFAA3A2800F877
S2140004B0B400000204C017427401400204DE6D4A14
S2140004C08411404A043CC002045000030400800229
S2140004D00F00404B04F9FFDE150640DB1505C0DFB4
S2140004E0150400DA150340DA150280DA1501C0DAC1
S2140004F0150000DB44008000261480308400800055
S21400050026168030C400800026198030170640DB8F
S2140005101705C0DF170400DA170340DA170280DA7F
S2140005201701C0DA170000DB2D0040430407C0DEC9
S214000530840000428400404A440080521EE43F5338
S214000540C4FFFF5A1EE03F583A2800F83A88096868
S214000550002000003A881B1006EC3F003A88096825
S21400056084014001002800003A881B1006E73F007F
S2140005703A880968C4004001002800003A881B1029
S21400058006E23F003400C2020400C05AF4018002B2
S214000590048A86527401000504C02DA51700405237
S2140005A017010052C403C003040200040400C00480
S2140005B004004005070040A32400414CA4008044EA
S2140005C03A88A38C3A88575C1602400326050068D2
S2140005D01606006874004003C4FF7F6B2D00405B66
S2140005E0060200002D000058060000003AC8575CBE
S2140005F0440040AD44000042440000A51EED3FAC60
S2140006004400C09C4400404A170100521EE8FF9B6D
S2140006103A2800F83400020404000084F401C00202
S21400062004F0C35A8411C05A0405000304000002F3
S214000630040040020F00005DA40080492400C14170
S2140006403A888F393A88E1812D0000853AC8E181E1
S2140006508400C05A4400404A1EF63F4B4400004205
S2140006601EF33F62F401C00204CAC45A8411C05A81
S214000670040A0003040500020405400304004002C7
S2140006800F00005DA40080492400C1413A888F39DC
S2140006903A88E1812D0000853AC8E1818400C05A7D
S2140006A04400404A1EF67F4B440000421EF23F6262
S2140006B0F401C00204A4C55A8411C05A040F0003F2
S2140006C0040A000204054003040040020F00005D17
S2140006D0A40080492400C1413A888F393A88E181D4
S2140006E02D0000853AC8E1818400C05A4400404A83
S2140006F01EF67F4B440000421EF23F623A2800F886
S21400070000000000000000000000000000000000E4
S21400071000000000000000000000000000000000D4
S21400072000000000000000000000000000000000C4
S21400073000000000000000000000000000000000B4
S21404B70000FFFFFFFFFFFFFF0000FFFFFFFFFFFF3D
S21404B710000100FFFFFFFFFF00010100FFFFFFFF26
S21404B7200001010100FFFFFF000101010100FFFF0E
S21404B73000010101010100FF0001010101000000F8
S21404B7400001010100FFFFFF0000000100FFFFFFF2
S21404B75000FF000100FFFFFFFFFFFF000100FFFFE7
S21404B760FFFFFFFF000100FFFFFFFFFF000100FFD8
S21404B770FFFFFFFFFF00FFFF424D48580200000096
S21404B7800000460000003800000040010000F00001
S21404B7900000010010000300000002580200202EE2
S21404B7A00000202E0000000000000000000000F84A
S21404B7B00000E00700001F00000000000000C95A57
S21404B7C0A95AA952A9528852885288528852885235
S21404B7D0684A484A684AA852A852884A88528852F0
S21404B7E08852885288528852A852A952A95AC95ACD
S21404B7F0C962C962EA62CA62CA62E962EA62CA6283
S21404B800C962C95AC95AA95AC95AC962C95AC95A27
S21404B810C95AA95AA95AA95AA95AA9528852A85221
S21404B820A8528852A852A95AC95AA95AA95AA95A12
S21404B830A95AA85AA95AA95AA95AC95AA95AA952D0
S21404B840A95AC95AA95AA95AC962C95AE962C95A07
S21404B850E962E95AA95AE962C962E962E962C95A1F
S21404B860C962E962E962E962E962C962E962E962B7
S21404B870E962E962C962E962E962EA62096BE96A55
S21404B880E96AEA6AE9620A6BE96AE9620A6B0A6BC0
S21404B890EA6AE96AE96AEA6AEA6AE962EA62EA6A12
S21404B8A00A6BEA6A0A6B0A6B0A630A6B0A6BEA6A31
S21404B8B0EA6A0A6B0A6BEA6AEA6AEA6A0A6BEA6A7C
S21404B8C0EA6A0A63EA6AE962E962E96AE962EA62DA
S21404B8D0C96AC962C962C962A962C962C962C9621F
S21404B8E0C962A962C962A85AA85AA85AA85AA85AE4
S21404B8F0A862A962A85AA85AA85A885A885A885A7E
S21404B900A85A885A885A885A6852685268524752BF
S21404B9104852675247524752675247524752475215
S21404B9204752275247522752275206522752265228
S21404B93026522752275247522B6BAC7BA95A4752A2
S21404B94027522752275247524752275227522752E6
S21404B9502752475A275A475A475A27522652475277
S21404B9604752475A2752475A275247524752475A2E
S21404B970475A2752475A47524752685AE95A6B6BF6
S21404B980AC73C95A2752475247522752485A47520D
S21404B9904752475247526852A85A685A885A895A90
S21404B9A0685A685A685A685A6852A85A685A68524E
S21404B9B0885A685A885A885A885A885A885AA85A6E
S21404B9C0A85AA85A885AA85AA85AA85AA85AA95A7D
S21404B9D0A95A885A885AA85AA85AA85AA95AA85A8C
S21404B9E0C95ACA62CA62C962C95AEA62CA62EA62C1
S21404B9F0E962EA62CA62C962C962EA62EA62CA6261
S21404BA00EA62C962C962A962C962CA62C962E962B3
S21404BA10C962EA62CA62A962C962CA62E962C95AAA
S21404BA20C95AC962A95AC962E95AC962C962C95AD5
S21404BA30C95AA962A962C962C962C962A962C95A15
S21404BA40A95AA9528852884A684A684A884A684A5B
S21404BA50684A684A684A684A684A885288528852D5
S21404BA60884A885288528852A852A952A95AA95A72
S21404BA70E962CA62C962CA62CA62EA62E95ACA6208
S21404BA80C962E95AE95AC962C95AC95AA85AA95A86
S21404BA90A95AA95AA952A95A8952A9528852A852EF
S21404BAA0885288528852A952A95289528952885279
S21404BAB0A8528852A85AA95AA95AA952A952C95290
S21404BAC0A85AA952C95AC95AA95AC95AC95AC95ABE
S21404BAD0E962E95AC95AC962C962C95AE95AC962C5
S21404BAE0A95AE962C95AE962E962E962E962E96265
S21404BAF0E962C962C962E962E962EA62EA62E96A1B
S21404BB00E962E962EA6AE962EA6AE962E962E962C2
S21404BB10C96A0A6BE96AEA62EA6AEA6AEA62C96AAE
S21404BB200A630A6B0A6B0A6B0963E962EA62EA6AE9
S21404BB302B6B0A630A6BEA6AEA6AEA6AC96AC96A22
S21404BB40E96A0A63E96AE962E962CA6AEA62CA6297
S21404BB50AA6AC962E962C962A862A862C962C962BD
S21404BB60A862A862A85AA85AA85AA85AA85AA85AAC
S21404BB70A862A85AA85AA85AA85A885A885A885A04
S21404BB80885A885A6752685A475248526852685ABE
S21404BB9048524752475A47526752475247524752AB
S21404BBA027524752475227522752275206522652A6
S21404BBB026520652275267524B6B6B7BA962675A12
S21404BBC02752265227522752475227522752275285
S21404BBD027522752275A475A265227524752475225
S21404BBE0475227524752475A475A47524752475294
S21404BBF04752275247524752475288528C6B0D7C05
S21404BC008C73A95A275A47524752475247524752AB
S21404BC102752275248524752A95A885A885288525D
S21404BC20475A885A6852685A47526852685A885A15
S21404BC308852685A885A885A8852885A885A885A1B
S21404BC40A85AA85A885AA95AA85AA95AA85AA95AF8
S21404BC50A95AA862885AA95AA85A885A885AC962F8
S21404BC60A95AC95AA95AA95AC95ACA62A95AC95A2A
S21404BC70E95AC95AC962A962E95AC962C962CA625A
S21404BC80EA62CA5ACA62C962C962CA62EA62E962F6
S21404BC90C962EA62C962A962A962A95AC95AC95A9A
S21404BCA0C95AA962C962A95AE962A95AC962A95AB3
S21404BCB0C962C95AC95AA95AA95AC962C95AA852BC
S21404BCC0A852A8528852884A684A684A484A684A23
S21404BCD0684A684A684A884A884A684A8852884A43
S21404BCE0884A8852885288528852A952A95AA95A10
S21404BCF0C962C95ACA62EA62C95AE962E95AC96299
S21404BD00C95AC95AC95AA95AC95AA95AA95AA95A92
S21404BD10A95AA85A8852A9528852885288528852D8
S21404BD2088528852885288528852A852A852A852DA
S21404BD30A952A852A852A8528852A852A852A85A41
S21404BD40A95AA95AA95AA95AA95AA95AC95AC95A92
S21404BD50C95AC95AC95AC95AC95AA95AC962E962B2
S21404BD60E962E962C962C962C85AC95AE95AE9620B
S21404BD70C962E962C962E962C962E962E962E962C2
S21404BD80E962EA62E962E962096BE962E962E96228
S21404BD90E962E962C962E962E962E962E962EA6261
S21404BDA0E962E962E96AE962E962E9620A6B0A6BD6
S21404BDB00A6BEA620A6BEA6AEA620A6BEA62C962B8
S21404BDC0E962E962E962E962E962E962C962C96252
S21404BDD0C962C962A85AC862A85AC962C962C85A5E
S21404BDE0A85AA85AA85A885AA85AA85A885A885A9A
S21404BDF0A85A885A885AA85A885A885AA85A685AEA
S21404BE00885A685A885A6752675268524752475245
S21404BE10475247524752475247524752674A475239
S21404BE204752475227522752475227520652064A2B
S21404BE302652075A074A4A6B2B7B0A7BE96A6752E3
S21404BE4047520752275A27522652065A065A27524C
S21404BE502752265226522652465A27522652475AC6
S21404BE60275A275A2752275A275A48524752485A77
S21404BE70A852095B6973AA83CB7BCD83CD83CD831C
S21404BE80EA626852475227522752275227522752AD
S21404BE90275247524752485248524852485A4852E4
S21404BEA0685A685A475248524852685A685A895AD1
S21404BEB04852885A685268526852885A8852885A31
S21404BEC0A85AA85A885AA85AA95AA95A895AA85A96
S21404BED0895AA95AA95AA95AA95AA85AA95AA85A63
S21404BEE0A85AA95AA95AA95AC962C962A95AA95AE2
S21404BEF0A95AC962C95AC962A95AC962C962CA6238
S21404BF00C962E962C962C962EA62EA62CA62CA626C
S21404BF10C962CA62A95AC962C962C962C962A96207
S21404BF20A962C962A95AA95AA95AA95AC95AA95AA0
S21404BF30A95AC95AA95AA85AC95AA95AA95AA852AA
S21404BF40885288528852884A684A684A484A674AE1
S21404BF50684A484A684A684A8952684A684A885217
S21404BF6088528852885289528952A952A95AA95A83
S21404BF70C962EA62C962CA62C962C95AA85AA95A97
S21404BF80A95A88528852A85AA852A852A952885226
S21404BF90A8528852A85288528852885268528852A8
S21404BFA088526852885288528852885288528852D8
S21404BFB08852A852A852A85288528852A95AA95AF6
S21404BFC0A95AA95AA85AA952A952A95AA95AC95A41
S21404BFD0A85AA85AA95AC95AA95AA95AC85AC85AE4
S21404BFE0C95AA852C95AC85AC95AC95AC95AC95A5A
S21404BFF0C962C85AE962C962C962C962E962E96289
S21404C000E95AC962E962C962E962E962E962E96217
S21404C010E962C962E962E962E962E962E962CA62FE
S21404C020C962E9620963E962E962EA620A6BEA6A7A
S21404C030EA620A63EA62EA6AEA620A6BE962C96267
S21404C040E962E962C95AC962A962C962C962C96277
S21404C050C962C962E962885AA962A85AA85AA85A43
S21404C060A85AA85AA85AA85A885A885AA85A885A17
S21404C070A85A885AA85A885A885AA85A6752885A70
S21404C080685A6852A85A475247524752475247522C
S21404C09047524752675247524752275227524752EF
S21404C0A04752475227522752064A064A264A264AE3
S21404C0B0264A464AA75A887B097BCA726B732A6348
S21404C0C0A8526852674A4752264A274A274A27529E
S21404C0D0275247524752285268528952895AA852C0
S21404C0E088528852A85268526852A85A4A6BEA7B09
S21404C0F00994079C858BC993CB8BAC8B6C832A7372
S21404C100685A2752275227524752275227522752F5
S21404C110475247522752685A274A4852485A685242
S21404C12048522752685A6852485247524852485210
S21404C1304852485268528852895A6852885A8852D5
S21404C140A95A8852895A885AA95A885AA85AA85263
S21404C150895A89528952A95A885AA85AA85AA85A52
S21404C160A85AA95AA95AA95AA962C962895AA96297
S21404C170A962C95AA95AC95AA95AA962A962A95A46
S21404C180C962C95AC962A962A962C95AC962C95AA6
S21404C190A962C962CA62A962A95AC95AEA62CA628B
S21404C1A0C95AA95AA95AA85AA95AA95AA85AA85A51
S21404C1B0A95AA95AA85AA95AA95AA95AA952A85270
S21404C1C0A8528852884A684A684A684A684A684A46
S21404C1D0684A684A684A684A684A684A884A88527E
S21404C1E0884A884A88528852A952A952A95AA95AF2
S21404C1F0C95AC962C962C962A95AC95AA95AA8526F
S21404C200A8528852A9528852A95A8852A952A952A9
S21404C21088528852885288528852684A8852684A95
S21404C22068526852684A885288528852885288529D
S21404C230A85288528852885288528852A852A852C5
S21404C240A852A852A852A95AA95AA95AC95AC95AA8
S21404C250A95AA95AA95AA95AA95AA95AA95AA85ABE
S21404C260A95AA852A95AA95AA95AC962C95AC95A4E
S21404C270C95AC962A85AC962C95AC962E962C96276
S21404C280E962C962E962C962E962C962E962C962CD
S21404C290E962C962E962E962C962C962E962CA62BC
S21404C2A0E962E962E962C962C962C962C962E962AD
S21404C2B0E9620A6B0A6BEA62EA62EA62E962E962C6
S21404C2C0E962E962C962C962C962C962A962C962ED
S21404C2D0A95AA85AA85AA862A85AA85AA85AA85A3C
S21404C2E0A85AA85A885A885AA85A885A885A885AD5
S21404C2F0885A885A885A4752885A8752885A885A77
S21404C30067526852885A675A4752475247524752AA
S21404C3104752475247524752474A4752274A27529C
S21404C320264A264A264A264A264A264A064A064AC4
S21404C330064A274AA7624783E97A097BCA830B7CA5
S21404C3402B7CEC7BAB736B6B8B6B6B6B6B6B6B6B6A
S21404C3508B73CB73CC7B0C7C0C7C2C7C2C842C8439
S21404C360EB7BCB7BCA7BEB7B0B842B8C2A8C499494
S21404C3700794A5938493A9938B8B6C8B4C7BC96A87
S21404C38047522752275227522752275227522752BC
S21404C390275227522752285228522752475247528A
S21404C3A06752485247524752485267526752685239
S21404C3B0685268526752485268526852A85A88525D
S21404C3C0885A885A885A68526852885A8852A95293
S21404C3D08852895289528852A95A895AA95AA85AFF
S21404C3E0A95AA95AA85AA95AA95AA95AA95AA95A2D
S21404C3F0A95AC95AC95AA95AA85AC95AC95AC96275
S21404C400A962A962A962C962A962C962C962C95A53
S21404C410C962A962A962C962A95AA95AA95AA95A9B
S21404C420A95AA95AA95AA95AA95AA95AA85AA95AEC
S21404C430A95AA95AA95AA95AA95AA95AA95A885204
S21404C44088528952684A684A684A684A474A484A43
S21404C450484A474A684A684A684A684A684A684A84
S21404C460884A884A8852884A88528852A852A952CA
S21404C470A952A95AA95AA95AA95AA85A88528952F5
S21404C48088528852885288528852885288528852D3
S21404C49088528852884A684A8852684A684A684A6B
S21404C4A0684A684A6852684A684A884A685288529B
S21404C4B0674A884A885288528852A852A852A85274
S21404C4C088528852A852A952A952A95AA95AA952BE
S21404C4D0A952A952A952A852A85AA95AA952A85A66
S21404C4E0A85AA852A85AA85AA85AA95AA95AA85A39
S21404C4F0A85AA85AC85AC85AC95AC95AC85AC95A60
S21404C500C95AC95AC95AE962C85AC962C962C962CB
S21404C510C962E962C962C962C962C962C862C9629B
S21404C520C962E962E962E962E962C962E962C9620A
S21404C530E962E962E962E962C962E962E962EA62B9
S21404C540C95AC962C962C962A95AC962A962A862FB
S21404C550A95AC962A85AA85A885AA95AA85AA85AB7
S21404C560885A885A885A885A885A8752885A885ABB
S21404C57088528752885A885A88526752885A68520C
S21404C58047524852675247524752675247522752B9
S21404C5904752474A474A474A2752264A2652274A74
S21404C5A02752264A274A064A264A264A064A064A58
S21404C5B0464A086B6583268349838A830A8C4A84A1
S21404C5C08A848B8C8B8C8C8C6B844B846B844A8493
S21404C5D08B8C8B8C6B8C8B846A844A846A8C4A8C96
S21404C5E0298C0984E8832994499448942894069CC1
S21404C5F0A49B839B849BC993CD93CD8BC962675AB6
S21404C60027522752275227522752274A274A275269
S21404C6104752275247524752475247524752475269
S21404C620475247524752474A47524852485268521E
S21404C6306852675268526852485288526852885202
S21404C6408852885A885A885A885A8952A952885AC7
S21404C650885288528852885A885A8852A952885AC8
S21404C660A85A885A885AA85AA85AA95AA95AA95AEE
S21404C670A95AA95AA95AA95AA95AC95AA95AA85A7A
S21404C680C95AC95AC95AA95AA95AC95AC962C95AC1
S21404C690C962C962C962A95AA95AA95AC95AA95AE1
S21404C6A0A95AA95AA95AA95AA95A895AA95AA95A89
S21404C6B0A95AA95AA95AA85AA95AA95AA95A884A8B
S21404C6C0684A8852884A684A684A684A474A474ACB
S21404C6D0474A684A484A484A684A684A684A684A22
S21404C6E0884A684A694A884A884A8852A9528952B6
S21404C6F0A952A952A95AA952A952A9528852895292
S21404C7008852884A884AA852A852884A8852884A30
S21404C710884A684A684A684A684A684A684A684A60
S21404C720684A684A684A684A684A684A884A684A50
S21404C730884A684A684A88526852684A684A8852E8
S21404C74088528852A952A952A8528852A95A895284
S21404C750A95AA852A852A95A8952A852A85288522D
S21404C760A852A852A85AA95AA85AA95AA95AA95ABC
S21404C770A852A85AA85AA95AA85AA95AC95AA95A84
S21404C780C85AA85AC95AC95AC962C85AC962A862B4
S21404C790C962C95AE962C962C962C962C962C95A28
S21404C7A0E962C95AE962E962C962C962E95AE95AA0
S21404C7B0C962E962C962E962E962C962C962C95AC0
S21404C7C0C962C95AC962A85AC85AA85AA85AA85ABD
S21404C7D0A85AC962A85AA85AA85A885AA85A885A57
S21404C7E0885A885A885A885A8752885A685A675282
S21404C7F0685A685268528852885A87526752475213
S21404C80067524752475227522752275227524752B7
S21404C810474A474A474A474A274A274A264A274A08
S21404C820274A264A264A064A064A064A264A264ADE
S21404C830086BA78364830583277BA9832984498C93
S21404C8406A848A84AB8C8B8C6B846B846B846B8CD1
S21404C8506A8C6B8C8B8C8A8C8A8C6A8C498C098C3F
S21404C860098C088CE88B089408940894C693A49BB7
S21404C87042936293849B0994EC8B4B7368524752A1
S21404C880474A264A4752264A264A274A2652274ACB
S21404C890274A274A275247522752484A474A474A6E
S21404C8A0485248524852484A4752474A48524752C2
S21404C8B04752685267524852475248528852685202
S21404C8C0885A8852A9526852885A885A895A88526D
S21404C8D08852885288528852895A88528852885276
S21404C8E0885288528852A95A885AA95A885AA85AE5
S21404C8F0A95AA852A95AA85AC95AA95AA95AA95A01
S21404C900A95AC962A95AA95AA95AC95AA95AC95A9E
S21404C910A962A95AA95AA95AA95AA95AA95AA95AEE
S21404C920A95AA95AA95AA95AA85AA85AA95AA85AE9
S21404C930A85A885AA85AA852A852A85AA95A484A7D
S21404C940684A474A684A684A484A474A474A474AF2
S21404C950474A484A484A684A684A684A684A684A9F
S21404C960684A684A684A684A884A884A884A884AAE
S21404C9708852885288528852885288528852884AE6
S21404C980884A884A884A89528952884A684A684A3C
S21404C990684A684A474A484A474A684A684A484A80
S21404C9A0684A474A484A684A484A684A674A684A50
S21404C9B0684A684A684A684A684A684A674A8852B7
S21404C9C0685288528852A852A952A852A85288522D
S21404C9D0A852A8528852885288528852885288523E
S21404C9E0A8528852A852A85AA95AA95AA85AA95A63
S21404C9F0A95AA95A8952A85AA85AA85AA85AA95A42
S21404CA00A85AA85AC85AA95AA95AA852A852A85AFB
S21404CA10C962C85AC85AA85AC962C95AC85AC96201
S21404CA20C962A85AC962C962C962E962C962E95A96
S21404CA30E962C962C962C962A85AC95AC85AC95AB7
S21404CA40C95AC85AC85AA85AA85AA85AA85AA85A6C
S21404CA50A85AA85AA85AA85A885A885AA85A885225
S21404CA60885A885A885A885A885A885A685A6752F6
S21404CA70675247524752885A47526752675247523C
S21404CA80675267524752475247524752474A474AA5
S21404CA90274A274A264A264A264A264A264A064A2B
S21404CAA0264A264A064A064A064A064A264AE75AAC
S21404CAB0E783C68B638B24836683A783C783288414
S21404CAC069846A8C8A846A846B846A846B8C4A8CD4
S21404CAD06A8C6A8C6A8C4A8C6A946994088CE88B93
S21404CAE0088C088C088C29940894E69BA39B439B8B
S21404CAF0E292E392649B289C27736752474A264A2D
S21404CB00264A274A4752264A274A264A2652264A69
S21404CB10274A264A274A27522752274A474A474A35
S21404CB206852475247524752275247524752474A3B
S21404CB30674A685247526852685268526852685246
S21404CB40685267528852885288526852885268528D
S21404CB50885288528852885A8852885288528852F4
S21404CB608852685288528852A85AA852A852A95283
S21404CB70A952A852A85AA95AA95A895A895AA95AE6
S21404CB80A95AA95AA95AC95AA85AA95AA95AA95A65
S21404CB90A95AA95AA95A8952A95A895AA95AA95ABC
S21404CBA08952895A895AA95AA85A885A885A895A2F
S21404CBB0895A895A8952A852A852A85AA852484A49
S21404CBC0484A684A684A684A474A484A484A484A6D
S21404CBD0484A484A484A484A484A484A484A694A9B
S21404CBE0694A484A684A694A694A684A8852684AA1
S21404CBF0684A684A885288528852884A684A684A04
S21404CC00684A684A684A684A684A684A484A484ACB
S21404CC10484A684A474A684A484A2842484A484A64
S21404CC204742484A474A474A484A474A684A684A37
S21404CC30684A684A474A684A884A674A8852885A05
S21404CC40885288528852684AA95288528852885212
S21404CC508852A952A95288528852885288528852B9
S21404CC60A852A8528852885288528852A852A95A62
S21404CC70A85AA9528852A85A885AA85AA85AA852F2
S21404CC80A95AA952A95AA85AC95AA85AA852A85A77
S21404CC90A85AA85AA85AA85AA85AA862A85AA95A72
S21404CCA0C962A85AC95AC95AC85AA95AA95AC85ABE
S21404CCB0C95AA962A962C95AC85AC85AC85AA95AA6
S21404CCC0C962A95AA85AC95AA85AA85AA85AA85A00
S21404CCD0A85AA85AA85A8752A85A875267528852FE
S21404CCE068526752885A67524752475268524752A8
S21404CCF0885A4752675267526752475247524752BA
S21404CD0047524852475247520652274A474A274AEA
S21404CD10264A474A264A264A264A264A264A064A89
S21404CD20264A264A264A064AE6490642A8528873EE
S21404CD30078CA58B438B0383658B868BC683E7831F
S21404CD40498449846A8C6A844A8C2A846B8C4A8C0B
S21404CD506A8CAB8C8A946A8C6A8C6A94088CE88B8E
S21404CD60088CE883088C289CE69BA49B4393E29A51
S21404CD70C292E3926493C68BA65A264A264A264A49
S21404CD80264A064A264A064A274A274A274A264A57
S21404CD90264A274A274A274A2752274A474A274ADB
S21404CDA0474A274A2752474A274A474A474A274A6A
S21404CDB04852274A27524852685248526852685284
S21404CDC0685268526852685288528852685288522A
S21404CDD08852685268526852674A88526852885223
S21404CDE0885A885288528852885288528852885A5A
S21404CDF08852885AA85A8852A95A89528952A95AD6
S21404CE00A95AA95AA95AA95AA95AA95AA95AA95A01
S21404CE10A95AA95AA95AA952A952895A895AA95A41
S21404CE208952885A885AA85A885A8852895A895AD6
S21404CE30895A88528852885A885A8852A95A474A20
S21404CE40484A484A484A474A474A474A484A484A4C
S21404CE50484A484A484A684A484A484A484A484A19
S21404CE60484A484A484A484A484A484A684A684AE9
S21404CE70684A884A684A684A684A684A684A484A19
S21404CE80484A484A684A484A484A484A484A484AE9
S21404CE90474A474A474A474A484A484A684A484ADD
S21404CEA04742484A474A274A474A474A474A474A18
S21404CEB0474A474A474A484A484A674A684A674A7E
S21404CEC08852884A8852884A885288528852885299
S21404CED08852885288528852885288528852885279
S21404CEE0885268526852A852885288528852885A81
S21404CEF0885A88528852885A885AA852A85A8852F9
S21404CF00A852A852A85AA85AA85AA852C95AA85AFF
S21404CF10A85AA85AA95AA85AA85AA85AA85AA85AF7
S21404CF20A85AC95AA85AA95AA95AA95AA95AC95AA2
S21404CF30A95AA85AA85AA95AC95AA95AA95AA85AB3
S21404CF40A95AA85AA85AA85AA85AA85AA85AA85AC7
S21404CF50A85A8852885A88526852885A6752885201
S21404CF60885A885A675247526752475267526752DE
S21404CF7068524752475247524752475247524752BF
S21404CF804752474A474A264A474A274A264A264A8B
S21404CF90264A264A064A064A264A264A264A264A48
S21404CFA0064A064A064A064AE641264AA8730784FB
S21404CFB0068C858BE382A27A048B448BA583E78355
S21404CFC028842884498C6A844A8C4A8C6B8C6A8CA4
S21404CFD08B946A8C6A944994498C498C288CE88B87
S21404CFE0E88B49944994C6934493C392A28AA39225
S21404CFF0C48A058BA693C783A75A264A264A264A76
S21404D000064AE649064AE641064A274A274A064A9F
S21404D010264A064A064A274A064A274A274A274AE3
S21404D020274A274A474A474A474A474A474A274ACF
S21404D030274A4752474A88526852485248526852CA
S21404D0404852685247526852685268524852885248
S21404D0506852885288526852885A8852685288524F
S21404D0606852685268528852885A88528852885A37
S21404D0708852885AA85A88528852885288528952A6
S21404D080885288528852885AA85AA85AA95AA95A1D
S21404D090A95A895A895A8852895A885A885289526A
S21404D0A08852885A885A885A8852895A8852885286
S21404D0B0885A8852885288528852885A8852474AD0
S21404D0C0474A484A474A474A474A484A47424742DD
S21404D0D04742484A484A484A684A484A484A484AA0
S21404D0E0484A484A684A684A484A484A484A684A47
S21404D0F0484A684A684A484A684A684A484A484A17
S21404D100484A484A2842674A474A484A484A474299
S21404D110484A474A4742484A47422742474A474AB4
S21404D12027422842474A474A274A474A474A474ADD
S21404D130474A474A474A484A484A684A474A684222
S21404D140684A684A684A884A8852A8528852685286
S21404D150885288528852684A6852674A68526852A7
S21404D1606852885288528852885288528852885AFE
S21404D17068526852885A885288528852A8528852EE
S21404D1808852A852A852A85A8852A852A85AA95AED
S21404D190885AA852A852A95AA95AA95AA95AA85AA2
S21404D1A0C95AA85AA85AA95AA95AA85AA85AA95A42
S21404D1B0A95AA85AA85AA95AC95AA85AA85AA95A32
S21404D1C0A85AA85AA85AA852A85A88528852A85A9E
S21404D1D0885A885A885A8852A85AA85A675A875228
S21404D1E0885A875267524752685247524752675284
S21404D1F047524752475247524752474A474A474A76
S21404D200274A674A274A274A2642064A264A264A79
S21404D210264A274A064A064AE649064A064A064A65
S21404D220064A064A064A064AC641A852E87B0784C6
S21404D2300694658BA2828282E38203836483A68338
S21404D240E783288C28846A846A8C6A848A846A8C35
S21404D2506A8C6A8C298C088C288C498C288CE88BE0
S21404D2602994499449946593E392A28AA28AA38A4C
S21404D27025936593E593E683A652064A064A064A2C
S21404D280064AE641064A064AE6410642064A064A6F
S21404D290064A274A264A264A074A274A274A274A40
S21404D2A0274A274A274A274A274A274A274A474ACD
S21404D2B0274A274A474A2852285247524852485231
S21404D2C04752475268526752475268524852685209
S21404D2D06852474A474A684A475288524852485210
S21404D2E06852685248526852885268526852685265
S21404D2F08852685288528852885288528852895274
S21404D3008852885288528852885AA85A885A88520C
S21404D310A952885A885A885A68528852885288521B
S21404D3208852885288528852885288528852885224
S21404D330885A8852885288528852885A6852474275
S21404D340474A4742474247424742474A474228429B
S21404D35027424742484A484A484A47424742484A78
S21404D360484A474A484A484A474A484A484A484A26
S21404D370484A484A484A484A484A484A684A484AF4
S21404D3804742474A484A484A484A474A2742274261
S21404D390274227422742274227422742474227421C
S21404D3A0474A2742274227424742474A474A474A6C
S21404D3B0484A474A474A2742474A474A4742474A0B
S21404D3C0474A684A474A684A684A684A884A684AE6
S21404D3D0684A484A684A684A684A474A674A684AF6
S21404D3E0884A884A684A88526852885288526852DC
S21404D3F06852885268528852885288528852875295
S21404D400885288528852A85AA852A852A852A85A93
S21404D410A85AA85AA85AA85AA85A885AA85AA85A13
S21404D420A85AA85AA85AA95AA95AA85AA85AA95AE0
S21404D430A95AA95AA852A95AA85AA85AA852A85AE0
S21404D440A85288528852885A8852885A88528852D3
S21404D45088528852885A675287526752675268526F
S21404D46067526752675267524752474A4752475273
S21404D470475247524752474A474A4752274A264A3C
S21404D480064A264A274A274A274A264A064A064A70
S21404D490064A06420642064A274A264A0642E64103
S21404D4A00642064AE641E641E641E85A087C078C0D
S21404D4B006948593827A8282A2820383858BC68BA6
S21404D4C0E78328842884698C6A8C4A8C49846A8C0D
S21404D4D04A8C498CE883E88B699469940894E88BB1
S21404D4E029944994E79BE3828382A28AE48AE48AA5
S21404D4F06593C59B259C078CA652064AE541264A99
S21404D5000642064A0642E641E6490642064A0642FC
S21404D510064A064A064A264A264A074A074A064A40
S21404D520264A064A064A274A274A274A274A274AAD
S21404D530274A274A274A274A474A474A474A474ADA
S21404D540484A47524752484A484A474A4752485226
S21404D5504852895A4852474A474A484A484A484AD3
S21404D560484A6852685288526852885268526852CA
S21404D5706852685288528852885288528852885212
S21404D580885288528852885268528852A9528852C1
S21404D59088528852895288528852885268528852D1
S21404D5A06852685288524852685268528852885262
S21404D5B088526852885268526852685268522742A3
S21404D5C02742474A2842274227422842484A2842B6
S21404D5D02742474228424742474A4842484227424F
S21404D5E04742474A2742484A684A484A484A484AB5
S21404D5F0484A2842484A474A474A484A474A2742E6
S21404D600474A474247422742274227422742274261
S21404D6102742274227422742474227422742274299
S21404D6204742274227422842284247422742474247
S21404D630474A474A4742474A474A474A2742474A89
S21404D640474A484A474A474A684A474A684A674AE6
S21404D650474A684A484A684A684A684A684A684A72
S21404D660474A684A484A474A684A674A674A674A86
S21404D670674A68526852674A474A6752674A674A1F
S21404D68087526852885288528852A852A8528852A2
S21404D6908852885288528852A85288528852885291
S21404D6A0A852885AA85AA85AA85AA85AA85A885AA9
S21404D6B08852A8528852A95AA95AA852A852A852BF
S21404D6C0885288528852885A885A88528852885271
S21404D6D08852885288526752885A8852475247520C
S21404D6E067524752475247524752474A4752474A59
S21404D6F0684A474A474A274A474A474A074A264AF9
S21404D700264A264A274A064A264A064A064A064A0F
S21404D7100642E641E6410642E64106420642064A1B
S21404D720E541E541E541E541264A6963C77BE68371
S21404D730068CA58BC382A282E3822383A58BC68B29
S21404D740078CE883088449844A846A844984298443
S21404D7506A8C698CC783C78B498C6A94E88BE89378
S21404D7602994079484936282638A8282A382048BB8
S21404D770A593E693479C078CA75A064A0642E641B9
S21404D7800642064AE5410642E641064A064A06427B
S21404D790064A0642064A064206420642064A264A00
S21404D7A0064A064A064A074A274A264A274A274A6C
S21404D7B0274A274A274A474A474A274A474A274A78
S21404D7C0484A274A274A484A484A4752274A474A1D
S21404D7D0485248524852474A484A474A484A474A9B
S21404D7E0474A474A684A474A684A684A88526852D3
S21404D7F04852685268526852685268528852685250
S21404D80068528852685267528852885288528852A0
S21404D8108852A95A88528852885268528852685246
S21404D8206852484A68526852885A88526852484A27
S21404D830685268528852484A68526852684A274270
S21404D8402742474227422742274227422742274267
S21404D8502742274247422842274227422742284255
S21404D860274227422742274227424742474A484AF6
S21404D870484A474A48424742474247422742284284
S21404D8802742274227422742274227422742074267
S21404D8902742274227422742274227422742274237
S21404D8A00642274227422742274227422742274248
S21404D8B047422742274247422742274227424742B7
S21404D8C0474A474A474A4742474A474A474A474ACF
S21404D8D0474A484A474A474A474A474A474A484AB5
S21404D8E0674A474A474A474A684A684A684A684A03
S21404D8F0684A674A674A68526852684A684A684A81
S21404D9008852684A474A8852884A685288528852D7
S21404D910885288528852885268526752885288526F
S21404D9208852885A8852A8528852A85288528852D6
S21404D930A852A852A852A852A85A885A885288525E
S21404D94088528852885A8852885A885288528852EE
S21404D9508852685268526752675267524752475213
S21404D960475247524752674A674A4752474A474AC6
S21404D970474A464A274A474A474A264A264A264A9A
S21404D980274A264A264A064A064A064A064A064AAD
S21404D9900642E641E641064206420642E541E541C4
S21404D9A0E541E541E541E541464A886BE77BE68B80
S21404D9B0E693858BC382A282C3822383A48BC68309
S21404D9C0E783E783E883088449848A84498C298C1E
S21404D9D06A8C6A8C098C088C498C498C0894E89368
S21404D9E0E793A593038B62824282A38AC48A258B1B
S21404D9F0A593269C469C488CC75A264AE641E6418F
S21404DA00E541064206420642E641E541E541E54176
S21404DA10E641E541E641E641E64106420642064263
S21404DA2006420642264A0642064206420642064A7D
S21404DA30064A274A274A274A274A274A274A274A76
S21404DA40274A27422742484A474A474A474A474AB4
S21404DA50274A474A474A474A474A474A474A484A54
S21404DA60474A484A484A484A484A684A684A6852B6
S21404DA70474A474A48526852484A684A684A675278
S21404DA80674A6852685288526752484A484A8852D7
S21404DA908852A85288528852685268526852684A15
S21404DAA0684A484A474A474A474A48524752685289
S21404DAB0484A68526852674A684A684A684A274227
S21404DAC02742274227422742274227422742274205
S21404DAD02742274227422742074227422742274215
S21404DAE027422742274227422742274227422742E5
S21404DAF02842474248422842284228422742274290
S21404DB002742074227422742274227420742074224
S21404DB100742274227422742274207420742074234
S21404DB200742064206422742074227420642074267
S21404DB3027420742074227422742274227422742D4
S21404DB402742274227422742274227422742474264
S21404DB5047422742274A474A47424742474A47429C
S21404DB60474A474A474A674A474A474A474A474A04
S21404DB70474A474A474A474A684A474A684A474AD2
S21404DB80484A684A684A684A684A684A685268520C
S21404DB90A8526852875288528852685268528852ED
S21404DBA0885288528852885288528852885287529D
S21404DBB08752A852A852885288528852884A685275
S21404DBC06852885268526752675267526752675261
S21404DBD048524752475267524752674A4752474A43
S21404DBE0474A274A274A474A474A474A474A274A04
S21404DBF0274A274A274A274A264A264A264A274A97
S21404DC00264A264A064A0642E641064A064206428C
S21404DC10E641E641E6410642E5410542E541E54185
S21404DC20E5410542E539E541A852E97BE683068CE1
S21404DC30C683658BC382427A837A0383A48BE68B7E
S21404DC40E783088408842984498449844984298488
S21404DC506A844984E87B498C8A948A94098CA78BC5
S21404DC604493C38A617A628A8382A482458BA5938D
S21404DC70E59306942694488CE75A264AE641E541FD
S21404DC80E541E541E541E641E641054205420642F5
S21404DC900642E641E641E641E641E64106420642E0
S21404DCA00642064206420642064207420642064A22
S21404DCB0064A064206422742274A274A274A274A4E
S21404DCC0274A274A274227422742274A2742274AE3
S21404DCD0274A274A274A274A274A274A474A474A73
S21404DCE0474A474A474A6852484A474A674A484A58
S21404DCF0474A684A484A474A484A484A684A484A4D
S21404DD00484A4852685248526852484A48526852EA
S21404DD10685268526852685268526852474A684A5B
S21404DD20484A484A484A474A474A4852474A484A55
S21404DD30484A474A685268524752484A4852274215
S21404DD4027422742274207422742274227420742C2
S21404DD5007420742274227422842274227422742B1
S21404DD602742274227422742274227424742284241
S21404DD70284228422842274227422742274227424F
S21404DD8007422742274227422742064206422742A4
S21404DD900742074207420742074207420742063A3B
S21404DDA007420742074207420742264227420742E3
S21404DDB00642274206422742274227422742274254
S21404DDC027422742274227422742474A27422742DA
S21404DDD02742474247424742474247424742474A0A
S21404DDE04742474A484A484A474A474A484A274AC7
S21404DDF0474A474A684A474A474A474A474A474A71
S21404DE00474A474A474A474A684A684A68526752EE
S21404DE10674A884A674A675267526852474A67524F
S21404DE2068526852685268528852885268526852D9
S21404DE30685288528852884A684A684A674A6852CA
S21404DE40674A6852674A674A684A47524752674A67
S21404DE50674A484A474A474A474A474A474A474A10
S21404DE60474A474A474A274A2752264A474A274A9A
S21404DE70274A274A274A274A274A264A064A264A34
S21404DE80064A064A06420642064206420642064239
S21404DE900642E641E641E641E641E641C541E54142
S21404DEA0E541E539E539E641E85AE87B0784E68347
S21404DEB0C6836483A47A427A82820383C58BE68B04
S21404DEC0E683E7830884498449842984288429844A
S21404DED04984298CE8836A8C8A946994078C458BD8
S21404DEE0C38A4282017A838AC4820483858BC5935B
S21404DEF0269405944794688C2863264AC541E539D8
S21404DF00E539E541E541E541E641E541E541E641DE
S21404DF10E641E641E641E641E641E641064205427F
S21404DF200642E639064206420642064206420642D1
S21404DF300642074207420642064227422742274A2B
S21404DF40274A2742274227422742274A274A484A3F
S21404DF502742274A274A274A274A274A274A474A18
S21404DF60474A474A474A474A474A474A474A484A1F
S21404DF70474A484A474A484A474A484A484A474A0C
S21404DF80484A684A474A684A474A474A474A484ABC
S21404DF90484A6852474A684A474A6852484A474A7B
S21404DFA0474A474A474A474A474A474A474A474AE0
S21404DFB0474A474A474A674A674A474A684A274297
S21404DFC027422742074206420642064207420742C3
S21404DFD00742074207422742073A07422742274298
S21404DFE027420742274227422742284247422742DF
S21404DFF0274227422842274227420742074227420F
S21404E00007420742274207420742064206420742A1
S21404E0100642064227420742074207420642063A9B
S21404E02007420642064206420642063A07420742AC
S21404E03006420642064227422742274227422742F2
S21404E0402742264227422742264227422742274281
S21404E050274227422742274247422742274247422F
S21404E0602742684288520A6309632963286328633F
S21404E070A85A884A474A4742674A27424742474A75
S21404E080474A474A474A474A484A474A474A474AFE
S21404E090474A474A474A474A474A674A674A675287
S21404E0A0474A4852684A674A884A684A88526852C1
S21404E0B06852674A674A674A684A684A674A6852BB
S21404E0C0674A674A6852674A674A474A674A474AF6
S21404E0D0474A474A474A474A474A474A274A274AEF
S21404E0E0274A474A464A274A274A264A264A274A62
S21404E0F0264A26422642264226422642064A064AFF
S21404E1000642064A06420642E641E541E541E64144
S21404E110E641E539E641E541E539C539E541E541FC
S21404E120C539C541C541E541486B0784E783068484
S21404E130C5836483A47A437A837A0383C58BC58BA9
S21404E140C68307840784288428842884C78308848D
S21404E1502984E883C883699449940794448BA37AF2
S21404E160417A21822282A482E482458BE593059437
S21404E170669C679C4794498C686B674AE541E53919
S21404E180E539C539E541E541E541C539E541E641AD
S21404E190E541E639E539E539E539E6410642E64141
S21404E1A0E641E6390642E641E641064206420642B2
S21404E1B00642064206420642064206420642074215
S21404E1C007422642274227422742074A074A274A47
S21404E1D0274A274A274A274A474A27422742274A9E
S21404E1E0274A474A2742474A474A274A274A274A46
S21404E1F0474A474A684A474A474A484A484A484A6A
S21404E200474A474A674A474A474A474A474A474A5D
S21404E210484A474A474A474A484A474A474A474A6B
S21404E220274A474A474A474A474A474A474A474A7D
S21404E230474A474A474A474A474A474A474A274275
S21404E2402742064227420642274206420642074221
S21404E25007420742074227422742274207422742ED
S21404E260274228422742073A073A274227422842AB
S21404E27027420742274227420742274206420742CE
S21404E280074207420742063A063A0642063A063A62
S21404E290E63906420642063A0642E6390742063A96
S21404E2A0063A07424842063AE639063A0642E6394C
S21404E2B0063A0642063A07422742064226422742C2
S21404E2C00642064227422742274206422742274260
S21404E2D026422742274227422742264247422842CE
S21404E2E0884AC95AE962A66AE672057B067BE57A1D
S21404E2F02673276B08636842474A2742674A474A99
S21404E300474A474A474A274A474A474A474A474A9C
S21404E310474A474A684A684A474A2742474A474A52
S21404E320474A484A474A684A684A474A674A684AD8
S21404E330684A684A474A474A484A684A674A474AC8
S21404E340674A674A474A474A474A474A474A474AFC
S21404E350474A474A474A2742474A274A274A264AB5
S21404E360264A474A26422642064A2642264A274A3A
S21404E370264A26420642264A0642064206420642E4
S21404E380064206420642E6410642E641E541E641C9
S21404E390C539E541E539E539E539C539E539A541F4
S21404E3A0C541C539C539E5414773E783C57BE58370
S21404E3B0C5832483A37A4272637A037BC48BC583A2
S21404E3C0C683E68307840884498C2884E883088403
S21404E3D00884E883E8832984E893A693C382217A91
S21404E3E0417A41826282C4824593859305946694F9
S21404E3F087946694278C28848873674A0642E54186
S21404E400C539C539C539C539E641E639C539C539C9
S21404E410C541E541C539E539E539E641E641E64118
S21404E4200642E641E641E639E639E639E639E641AA
S21404E430064A0642064206420642E64106420642AC
S21404E4400642274226422742274A274A06422742AE
S21404E450274A474A274A274A06422742274227424C
S21404E460274247424742274A274A27424742474AC3
S21404E470474A484A484A474A274A474A474A274A49
S21404E480474A474A474A474A684A274A274A474A1A
S21404E490474A484A474A474A274A474A274A474A2A
S21404E4A02742474A484A474A474A474A474A474A02
S21404E4B0474A274A474A274A474A274A474A274253
S21404E4C027420642264227420642064206420742A0
S21404E4D007422742074206420642064207420742CE
S21404E4E00742073A273A073A07422742073A0742BB
S21404E4F00742074207420742074207420742063AD4
S21404E500063AE7390642063AE639063A063AE6395C
S21404E510E639E639E639063AE639063AE639063A97
S21404E520063AE639484AE639E639E639063AE63935
S21404E530E639E6390642064206420642063A0642EC
S21404E54027420642064227420642274206422642FF
S21404E5500642274227422642264226426742E9527C
S21404E5608B6BAA7B2873246A026A6372C47AC37AA2
S21404E570A36AA4720673486B0963A8524842474AC2
S21404E58027422742474A474A474A474A474A474A4A
S21404E590474A474A474A274A474A274A274A474A4A
S21404E5A0474A474A474A474A674A674A474A474A9A
S21404E5B0474A474A474A474A474A474A474A474ACA
S21404E5C0474A684A474A274A474A474A274A474AD9
S21404E5D0274A274A274A474A2642264A264A264A96
S21404E5E0264A474A264A06422642264226420642E9
S21404E5F00642064A064206420642064206420642CA
S21404E600E641E6410642E539E539E541E539E539CD
S21404E610E539C539C539C539C539C539C539C539E1
S21404E620C531C539C5390542886BE77BC683C583C2
S21404E6306583C47A827A4272637AE37AA483A48B6B
S21404E640A583A67BC783088428842884C87BC883BC
S21404E650C883C77B0884288C858BE37A0172E171B2
S21404E660417A628AA382248B6593C5932694479441
S21404E6704694268C07842884E97B085B0642E539A1
S21404E680C539C539C539C539C539C539C539C53991
S21404E690C539C539C539C539C539C539E539C53961
S21404E6A0C539C539E641C639E639E639E639063AA2
S21404E6B0E641E641E641064206420642E641064295
S21404E6C0064226420642E641064206420642064202
S21404E6D0074226422742274227422742274227420A
S21404E6E0074227422742274A274A274227422742E9
S21404E6F0274227420742274A474A474A274A274A81
S21404E7002742274A274A474A2742274A274A474250
S21404E710274A474A474A474A474A274A474A274AC8
S21404E720274A274A274A2742474A274A274A274A40
S21404E730274A274A274A274A27422742474A074260
S21404E740274206420642063A063A0642064206426F
S21404E750E6392642063A064206420642073A073A8F
S21404E7600642073A073A073A07420742273A26423A
S21404E7702742073A2742063A063A07420742063A2B
S21404E7800642E639E641E639E639E639063AE63936
S21404E790E639E639E639E639E639E639063AE63957
S21404E7A0E639E639E539E639E639E639E639E63969
S21404E7B0E639E6392742E639E539E639264206429D
S21404E7C0063A0642064227420642274227420642A5
S21404E7D0064206422742064206422642A84A0953F1
S21404E7E00863C75AA55A2362E1692272A37AE382B0
S21404E7F02483067B467B677B87736873696B096330
S21404E8008852474A474A274A274A274226422742E7
S21404E810474A27422742274A274A274A274A27425F
S21404E8202742474A4742474A474A2742474A474AAF
S21404E830474A2742474A274A474A474A474A474A8F
S21404E840474A684A474A474A474A474A274A274A56
S21404E850274A274A274A26422642264A264A264A3C
S21404E860264A274A064A2642263A064206420642CE
S21404E8700642E649E6410642E541E639E641E64116
S21404E880E541E541E641E541C539E541E539E6417D
S21404E890C539C539C539C539A531A539A539A53907
S21404E8A08439C53984310642A86BC7738583A5832A
S21404E8B06583A37A427222724272C382848B8483F3
S21404E8C06483A57BA67B0884E77B0884A77BC87B38
S21404E8D0A783C783088CE7834383A27A017AC1712E
S21404E8E042826182C38A449385930694469427940D
S21404E8F0278CE68B0784077C087C696B2642E539FF
S21404E900C539C539E539A539C539C539C539C5390E
S21404E910A531C539C539C539C539C539C539C53926
S21404E920C539E639E639C639E639E639E639E53928
S21404E930E639E6390642E641E641E639064206424B
S21404E940E639C539064206420642264206420642D1
S21404E95027420642264206422742274227422642AA
S21404E9602642274227422742274227422742274257
S21404E97027422742274A274A274A2742474A274AFE
S21404E9802742274227422742274227422742274236
S21404E990474A2742274A474A274A2742474A274A96
S21404E9A0274A274A474A2742274A0742274A274AE6
S21404E9B0274A274A274A274A474A274227420742DE
S21404E9C00742063A063A0642063A063AE639063A4E
S21404E9D0063A063A063A063A063A073A073A063A2C
S21404E9E0063A0742063A063A063A073A073A063A13
S21404E9F0063A073A063A063A063AE639E639073A4E
S21404EA00073AE639E639E639E639E639E639E639E3
S21404EA10E639E639E639E639E639E639C539C5313F
S21404EA20E639C539E639E639E639E639E639E63906
S21404EA30E639E639E639E639063A0642E639E6398B
S21404EA40063A063A063A0642064206420642064295
S21404EA5006420642064206420642274246422642EC
S21404EA6006420642454A226A226A2372837A8282D0
S21404EA70627A827AA37A427A427A21728272A37284
S21404EA800573476BE862464A254226422642264AD2
S21404EA90264A264A2642264A264A27422742274A02
S21404EAA0274A27422742474A474A4742474A474A4D
S21404EAB0474A474A474A2742474A474A2742474A15
S21404EAC02742474A474A274A274A274A2742474A65
S21404EAD0264A264A274A264A26422642064206420C
S21404EAE0064206420642064206420642E6410642FE
S21404EAF00642064206420642E641E639E639E64161
S21404EB00E639E539E639E539E539E539E539C5392A
S21404EB10E539C539A539A539A539A439A431C53986
S21404EB20A5398431A5390542676BA673A57BC57BD9
S21404EB30247BA372227222722272A27A6483A48332
S21404EB408483A583C6830884087CE883C87B877B84
S21404EB50A783088CE8834483C282417AC171E17931
S21404EB60427A6282C382848B26942694278C278CCE
S21404EB702684E683E7830884E87BC87B8752063AC4
S21404EB80C539C539A531C539A531A539A539C5391C
S21404EB90A539A531A539C539A531C531C531C53124
S21404EBA0C539C539C539C539C539C539C539E5394C
S21404EBB0E639E639E639E639C639E639E639E63974
S21404EBC0063AC539E639E639E639E639E63906421B
S21404EBD0064206420642064206420642063A2642D4
S21404EBE0264226420642264226420642064226423C
S21404EBF027422742274227422742264227420642E6
S21404EC00274A274A274A274227422742274227429B
S21404EC10274A27420742274A274A274227422742AB
S21404EC2027422642274227422742274A274A274A7C
S21404EC30074A27422742274227422742474A074293
S21404EC400742063A063A063AE6390742E639063AEB
S21404EC50063AE639E639E639E6390642063A063A27
S21404EC60063A073A063A063AE639073A073A0742B0
S21404EC70E739063A063AE739E739E639E639E6394E
S21404EC80E639E639E639E639E639C639E639E639A3
S21404EC90E639E639E639E639E639C539C539E639B5
S21404ECA0E639E639E639C539E639E639C539E639A5
S21404ECB0E639E639E639E639E639E639E639E63953
S21404ECC0063AE639E639E639063A063AE639E639E0
S21404ECD0063AE639E6390642E6390642E639073A9E
S21404ECE02742484A454AE161226A827AA282A3827E
S21404ECF08282A382838A4282217A227A01722272D3
S21404ED006372C37A057BA75A4842264206420642E5
S21404ED100642064206420642264A27422642264221
S21404ED202642274227422742274227424742474A4B
S21404ED302742474A2742474A2742474A474A474ABA
S21404ED40274A274A274A274A274A274A2642274243
S21404ED50264206420642264206420642064206422A
S21404ED60E54106420642064206420642E641E639C6
S21404ED700642E641E541E639E539E539E539E64155
S21404ED80E539E539C539C539C539C539A431A53993
S21404ED90C539C539A531A5318431A431A431A5318D
S21404EDA0A531A5398431E541886BC67BA57B657B97
S21404EDB0C372426A027202722272827A4483847B2B
S21404EDC0647BA583C67BE77B087CE87BC87B677B84
S21404EDD0A783E883A78BC27A4172E171E179C1798E
S21404EDE0427AA382038B05942694478C0784E68391
S21404EDF00684E77BC77BE77B0884E87B486B674A27
S21404EE00C539A531A431A531A531A531A431A53123
S21404EE10A531A531C539A531A531C539C531A531C9
S21404EE20A531C539C539C539A539C539C539E53911
S21404EE30E539E539E539E639C639E639E639E639F4
S21404EE40C5390642E639E639E639E6390642E63990
S21404EE50E6390642E6390642E639E639064206420D
S21404EE600642E63926420642064206420642064262
S21404EE702642264206420642274226422742274286
S21404EE8007420642274227420642074207420742F3
S21404EE900642274A274A274A274A27420742064263
S21404EEA0274A274227422742264227422742074A22
S21404EEB0274A274226422742264227420642E63966
S21404EEC00742E6390642E639063AE639063AE639AC
S21404EED0E639E639E639E639E639063A063AE639EF
S21404EEE0063AE639073A063A063A063A063A063A39
S21404EEF0E639063AE639E639E639E639E639E639F0
S21404EF00E639E639E639E639E639E639E639E63900
S21404EF10C639E639E639C531C539C639E639E6397A
S21404EF20C539E639E639C539E539C539E539E63945
S21404EF30E639E639E639E639E639E639E639E639D0
S21404EF40E639E639E639E639E639063A063AE6397E
S21404EF50E6390642063A063AE63906422742684A3F
S21404EF60C95AA8624562C261A061C169E171017AA9
S21404EF70217A217A618262826182417A417A227A96
S21404EF8041724172C3722773C852274227422642EF
S21404EF902642264226420642264206420642264288
S21404EFA02742274226422742274227422742274211
S21404EFB027422742474A27422642274226422642DB
S21404EFC02742264226422742064226422642264216
S21404EFD00642064206420642064206420642E64109
S21404EFE0064226420642E641E6410642E641E6413C
S21404EFF00642E639E539E639E639E639E539E539EA
S21404F000E539E539C539C539C539A539C539A5310F
S21404F010A539A531A431A431A531A4318431843174
S21404F020843184318431E5394773C683A583247BD0
S21404F0306272E169E169E171427282722383437B01
S21404F040447BA583A67BE87B087C297CE87B877BBE
S21404F0506783C88B6583817A60696071C171E17169
S21404F0606272A382448B058C678C278C068CE6839D
S21404F0700784E77BE77BC77BC77BE87BA97B2763A3
S21404F0802642C531A53184318431A531A531A53157
S21404F090A531A531A531A531A531A531A531A531B7
S21404F0A0A531A531C539C531C539C531A531E539CF
S21404F0B0C539E639C539C539E539E539E539C539D6
S21404F0C0E639E539E639E539E539E539E639E63943
S21404F0D0E639E639063AE639E639E639E639E6390E
S21404F0E0E639E63906420642064206420642064229
S21404F0F00642063A064206420642064206420642CF
S21404F1000642064206420642064206422742264275
S21404F1102742264206422642264206420642064225
S21404F1200642064227420642064206420642064275
S21404F1302642064206422642064226420642E6394F
S21404F140E639E639E639E639E639E639E639E639BE
S21404F150E639E639E639E639E639E639E639063A8D
S21404F160E639073AE6390742E739063AE639E63930
S21404F170E639E639E639E639C639E639E639E639AE
S21404F180E639E639E639E639E639C639C639C639DE
S21404F190C639E639E639C539C539C639A531C5395A
S21404F1A0C539E639C531C539E639C639C531C53933
S21404F1B0E639E639E639E639E539E639C539E63970
S21404F1C0E639E639E639063A063AE539E539E639FE
S21404F1D0E639E639E639E639E6392642E9522A635B
S21404F1E0277385720262A169816160612061006192
S21404F1F00061006120696069A0718069A171A169DC
S21404F200E16921724172A372467B286B674A2642E3
S21404F210063A2642063A0642063A0642064206429D
S21404F22006422642264227422742274227422742B0
S21404F2302742474A2742264226422642264226425A
S21404F24026422642264226422642064206420642D5
S21404F2502642264206420642064206420642064225
S21404F2600642E54106420642E539E539E539E54117
S21404F270E5390642E539C539C539C539C539E539EB
S21404F280C531A531C539A439A539C539A539A4313F
S21404F290A539A439A4398431843184318431843144
S21404F2A08431843184314642A773C583A48323837F
S21404F2B04272C1698169E271226A6272037B237BAE
S21404F2C0247B657B867BC87BE87B097CE87B677B45
S21404F2D046834583C37AA16960616069E169E2692E
S21404F2E083722483848B268C2684068CE683C683CA
S21404F2F0C77BE87BC87BC87BC87BE77BC77BA77BD1
S21404F3008773C752063AA53185318531A531A531B3
S21404F310843184318431A5318431A531A531A531B8
S21404F32085318531A531A531C531A531A531C6391B
S21404F330A531C539C539C539C539E639A531C5310B
S21404F340C539E539E539E539E539E539E639E639E2
S21404F350E639E639E639E639E639E639E639E639AC
S21404F360E639E639E639E6390642063A06422642E0
S21404F3702742064206420642063A0642064206422B
S21404F3800642063A063A0642E6412642063A06424D
S21404F3900642063A0642064206420642064206422C
S21404F3A006422642064226422642064206420642B4
S21404F3B00642064206420642264206420642063AEC
S21404F3C00642E639E639E639E639E639E639E63913
S21404F3D0E639E639E639E639E639E639E639063A0B
S21404F3E0063A063A063A063A063A063A063A063A14
S21404F3F0063AE639E639C639E639E639E639E6390B
S21404F400E639E639C639E639C639C639C639C631A3
S21404F410C531C639C531E6392742E639C531C63164
S21404F420C531E639E639C539C539C531C639C539B0
S21404F430C539C531E639C539E639E539C539C53979
S21404F440E639E639E639E639E639E539E539E639BD
S21404F450E639E639E639E639063A2642674A464A3E
S21404F46024520362E1618161806180616061406170
S21404F4702061206100610061E0600061006120613C
S21404F48020616061A069216A8372067B4773A75274
S21404F4900742063AE6390642E6390642064206427C
S21404F4A0264206422642274227422742274226422F
S21404F4B02642264227422642264226422642064222
S21404F4C0064206420642264A264A26422642064263
S21404F4D0063A06420642063A063A06420642E53925
S21404F4E0E5390642E641E639E539E539E539E539EF
S21404F4F0E539C539E539E539E539C539E539C53973
S21404F500C531C539A531A431A431A531A531A431FD
S21404F5108531843184318431843184318431843139
S21404F520843164298431A752C87BC68384830383C9
S21404F5302172C169C169C16902724172027B037B8F
S21404F540447B857BA67BC77BE87B297CC783667B5D
S21404F550047B0383A27A60618169A169E169226AF6
S21404F560C37A2483C58B268C0684E683E67BC67B17
S21404F570E77BE87BE87BE883E87BE87BC77BC77BA5
S21404F580C77BA773E75AA531A531A531A5398431C0
S21404F5908431A53184318431A5318431A531A53136
S21404F5A0A531A531A531A531C531A531A531A53182
S21404F5B0A531A531C539C539A531C531A531C639F9
S21404F5C0C539C539E539C539E539E639E639E6399F
S21404F5D0E639E639E639E639C539E639E639E5394C
S21404F5E0E639E639E639E639E639063AE639063AD8
S21404F5F00642063A06420642E639063A0642E63924
S21404F600053A063A0642E639063A0642E639E63945
S21404F61006420642064206420642064206420642A1
S21404F620E641064206420642274206420642064291
S21404F6300642063A0642063A063A063A0642E639CA
S21404F640E6390742063AE639E639E639E639E6396E
S21404F650E639E639E639E639E639E639E639063A88
S21404F660E639E6390642E639E639E639E639E63970
S21404F670E639E639E639E639C539E639E539E531B4
S21404F680E531C639C639E639E639C639A531C6394B
S21404F690C531C531C531C531C531C539C531A531C9
S21404F6A0A531A531A531A531E639A531A531A53158
S21404F6B0C531A531C539C539C639C639C639C5397E
S21404F6C0E539E639E639C539C539E639E639C6399C
S21404F6D0C639E539E539E539E539E639E539E6394E
S21404F6E0244A235AE16960616061806180618161B6
S21404F6F0816161614061005900592059415920597E
S21404F7000059E0580059C169E061016A6272C47226
S21404F7100773675206420642E639E6390642063A57
S21404F7200642064206422642264226422642064210
S21404F73026422642064206422742064227422642DE
S21404F7400642264206420642064206420642064250
S21404F750063AE6390642E641E641E639E639E6394E
S21404F760E639E541E641E539E539C539E539E641A5
S21404F770C539E539C539C539C539C539C539C53970
S21404F780C531A531A531A531A531A531A5318431C1
S21404F7908431843184318431843164298331642909
S21404F7A08431843184312763C67BC57B647BE37AEA
S21404F7B0C169E161E169E169026A2272E27A037B66
S21404F7C0247B657BA67BA77BC87BC77B6683047B81
S21404F7D0A37AA27A016A606960698169E2696372E0
S21404F7E02483A48B058C068C0684E683E67BC77B81
S21404F7F0E87BE773087C087CE8830884C77BC77BC0
S21404F800C77BC77BE87BA652E531A431A53184319A
S21404F810843184318429843184318431843184313F
S21404F820A531A5318431A5318431A531A531A53161
S21404F830A531A531A531A531A531C539A531A531E7
S21404F840C531A531C531E539E539C539C539E63996
S21404F850E639E639E639C539C539E639E639E539EA
S21404F860E639E639E639063A063AE639E639E63955
S21404F870063A0642E639E639E6390642E639E63914
S21404F880E639063A063AE639063AE639E641E6390C
S21404F890E639E639E639E639063AE539E539E63948
S21404F8A0E639E639E639064206420642064206428A
S21404F8B00642063AE53906420642063A0642E63962
S21404F8C0E639E639E639E639E639E639E639E63937
S21404F8D0E639E631C639E639E639E639E639E6394F
S21404F8E0E639E639E639063A063AE639E639E639D5
S21404F8F0E639C539C639E639C639E631C631C531C1
S21404F900C639E639C539C639E639E631C531C531B1
S21404F910C531C531C531A531C639C531A531A53185
S21404F920A531A531A531A531C531A531A531C639D5
S21404F930C539C639C531C639C539C539E639274248
S21404F940E639C539C539C639C639C539C539C5399B
S21404F950E639C539E539053A053AE5390742664ACE
S21404F960C662C4728372806160696061606141616D
S21404F9706169616160614059205941594159215971
S21404F98000590059C0506061E161E161C161E16103
S21404F990426AC46A8552E639E639E639E639E53913
S21404F9A0064206420642264226420642264226428E
S21404F9B026422642264227422642264226422642FD
S21404F9C00642263A064206420642063A0642E53908
S21404F9D006420642E5390642E641E639E539E539A6
S21404F9E0E639E639E539E539E539E539E539C5393C
S21404F9F0C539E639C539A531C539C531A531E53925
S21404FA00C531C539A531A5318531A4316429843180
S21404FA1084318431A431843184298431843184311D
S21404FA20642964296429666BA673A47B237BA2726B
S21404FA30A069C169E169E169E2694272E27203732D
S21404FA40647B847BA67BC77BC883A783047BA27A5C
S21404FA50627AE169A069A0698169C2694372C37266
S21404FA604483A48B058C0684E583E683C77BC77B27
S21404FA70C77BE77B0884298428842884E883C77B9B
S21404FA80E87BC87BC87B8773C5522542C42984316A
S21404FA90642984298431843184298429A5318431D4
S21404FAA0843184318431A531A5318431A531A43122
S21404FAB0A531A531A531C539A531A531A531A53165
S21404FAC0C539A531A531C539C539E639C539C53174
S21404FAD0C539C539E639C539A531E539C539C53914
S21404FAE0E639E539E539E639E639E639E639E63917
S21404FAF0E639E639E639E639063AE639E639E639E4
S21404FB00E639E539E539E639E639E639E639E639F6
S21404FB10E539E539E639E539063AE639E639E539C7
S21404FB200642063AE639063A063A063A0642063ADD
S21404FB30063A063A063AE639E539E6390642E63939
S21404FB40E639E639E639E639E639E639E639E539B5
S21404FB50E639E639E639E639C631E639E639E639CC
S21404FB60E639E639E639E639C639C639E639E631DC
S21404FB70C639E539C639C531C531C631C631C63987
S21404FB80C531C531A531A531A531C531A531C5313C
S21404FB90C531A531A531A531A531A531A531A5318C
S21404FBA0A531A5318531A531A531A531A531A531BC
S21404FBB0C531A531A531A531C531A531A531C5312C
S21404FBC0C531C531C539C639C639C539C539E5392A
S21404FBD0C531C631E639E639063A06428452A4628D
S21404FBE0A36AA272A27242720172A169806940611C
S21404FBF06061606160618161616141592059215988
S21404FC0000592051E05000598169E161A05980599A
S21404FC10A059C161846AE539E639E639E639E53939
S21404FC20E539E539064206420642064206422642BF
S21404FC30264226420642274226422642264226429A
S21404FC400642064206420642E6390642E6390642BD
S21404FC500642C539E539E541E641E539E539E6398F
S21404FC60E539E539E539C539E539C539C539C5391B
S21404FC70C539E539C539A531A531A531C539C539E3
S21404FC80C531A531A5318431C539A53184316429FE
S21404FC908431632984318431A43164296429642934
S21404FCA064298431843186738673647BE372416A83
S21404FCB0C169A169C169C17101728272237B247B07
S21404FCC06473A57BC77B0884C7834583C37A827A1B
S21404FCD0E169A069C069C169A169E269A472248363
S21404FCE0A48BC58B058CE583C583E67BE77BC77B46
S21404FCF0E87BE77B298428840884088408840884AD
S21404FD00E77BE783C67B867BE77B876B4642A4312B
S21404FD10842984318431843184318431843184313A
S21404FD208431843184318431843184318431843122
S21404FD30A431A531A5318431A531A531A531A5312C
S21404FD40C539A531A531C531C539E639A531A53141
S21404FD50C539C539C539E639E639E639C539C53947
S21404FD60C539C539E539E539E539E639E639C539F8
S21404FD70E539E639E639E639E639E639E639E53984
S21404FD80E539C539E639E539E639E539E539C539B8
S21404FD90E639E639E639E539E539E639E639C53985
S21404FDA0E639E639E639E539063A063AE539E53913
S21404FDB0E539E539E539E639E539E639E639E63946
S21404FDC0C539C539E539E6390642E639E639E6394C
S21404FDD0E639E631C639E631E631E639E639C63182
S21404FDE0E531C539C539E639E639C639E631E6318D
S21404FDF0C631E539C531C531A531A5318531A531C1
S21404FE00A5318531A531C539A531A531A531A53131
S21404FE10A531A531A531A5318531A531A531853169
S21404FE20A5318531A5318531A531A531A531A53159
S21404FE30C539A531A531A531C539A531A531C53991
S21404FE40E539E639C539C539C531C539E539C53960
S21404FE50E6398742C952A9628862C6626362426A08
S21404FE60426A4272426A4172416A416A216AE27196
S21404FE70A169606140616161816161614059415974
S21404FE80215920512159E0502061A061A059A16157
S21404FE908059A261225A0542063AE639E639E5391E
S21404FEA0E539E539E539064226420642063A06426F
S21404FEB0063A064206420642064206420642064201
S21404FEC006420642E641E639E639E641E539E641C8
S21404FED0E641A439A4390642E539E539E539E63977
S21404FEE0E639E539C539C539E539E539C531A539C0
S21404FEF0C539A531C539A531A531C531A531C531B9
S21404FF00C531A531A53184316431843184318531DC
S21404FF10A5318431A531A53184296429642964294D
S21404FF2064298431E53985736573247BA272016A7A
S21404FF30806180618169E1694172C27A2473447385
S21404FF408573A77BE77BE783867B037B817A0172D5
S21404FF50A069A071C169E169E269437205834483BB
S21404FF60A48BE593058CE58BC683E77BE77BC87B90
S21404FF70E87B088429840884E783E8830884288443
S21404FF802884C783C783A783287C08842763063A04
S21404FF9084298429843184318431843184298431C8
S21404FFA084318431843184318431842984318431A8
S21404FFB08431A531A5318431A5318431A531A531EB
S21404FFC0A531A531A531A531C531C539A531C53110
S21404FFD0C539C539C531E639C531C539C531C5391F
S21404FFE0C539E539E539E539E539C539C539C53998
S21404FFF0E639C539E639E539E539E539E539E53926
S214050000E539E639C539C539E639C539E539C53974
S214050010E639E639E539063AE539E539E639E639C0
S214050020E639E639E639E539E539E539E539063AB1
S214050030E539E539E539E639E539E639E639E639C2
S214050040E639E539E539C639E539E639E639C539F2
S214050050E639E639E539C639C639C539E631C63130
S214050060E639E639C631E631C631C531C531C63160
S214050070C631A531A531A531A531C531A531A53185
S214050080A531A531A531A531A531A5318531A531D6
S214050090A531A531A531A531A531A53185318531E6
S2140500A08531A5318531A5318531A5318531A53116
S2140500B0C531C531A531A531A531A531A531A53146
S2140500C0A531A531A531C539C531C531E539263A3C
S2140500D0C9522A6BE96A4662446A836A617A617A1A
S2140500E0617A41722172217221724172616A62726D
S2140500F0226AE169C1696059605961614059405990
S2140501002151205120512051005140598061A06154
S21405011080598159E161244AC539E539E539E5391A
S214050120E639E539E539E539E539063AE539E639B1
S214050130E639063A063A064206420642E6390642D7
S21405014006420642E539E539E539E539E539E63960
S214050150E6390642E539E539E539E539E539E5397A
S214050160E539C539C539C539C539C539C539A5319D
S214050170A531A531A531C539A431A531A531A5319E
S214050180A5318431843184318431843184316429C4
S21405019064298429674A8431642964296429632982
S2140501A064296429654A657364730373216A8061EB
S2140501B0606181618161016A6272E37A2473647B9E
S2140501C08573A77BC77B447BE37AA27A0172806935
S2140501D08069A069E16922726372A47A448B858B73
S2140501E0E58BE58BE58BC583C67BE783E87BE883F4
S2140501F0088408842984E883E883E8830984288CAE
S214050200288C08840884288C288C498CEA7BA7527D
S2140502108429A4318429842984298429842984313C
S214050220843184298431842984318431843184312C
S21405023084318431843184318431A531A5318431CA
S214050240A531A5318531A531A531A531A531A53114
S214050250A531C531C539C531C539A531C531C5390C
S214050260C539C531C539C539C539C539C639C5399B
S214050270C539C539C539E639C539A531C539C5398B
S214050280C539C539C539C539C539C539C539C53974
S214050290C539E539E539E539E639E539C539C539C3
S2140502A0C539C539E539E539E639C539E639E539B2
S2140502B0E539E539E539E539E539E539E539E63943
S2140502C0E639E539E539C639C531C639C639E539B8
S2140502D0E639C531E639E639C531C539E631C631BF
S2140502E0E631C639C631C631C531A531C631A53167
S2140502F0A531A531A531A5318531A531A531A53164
S214050300A531A531A531A531A5318429A53185317C
S2140503108531A53185318531853185318531853103
S2140503208531843185318531853184318531A531F5
S214050330A531A531A531A531A531A531A531A53103
S214050340A531A531A531A531A531C531063AA74A4E
S214050350E85AC75AA65A067BC482E282C392C28A64
S214050360A18A618A418A2182417A217A2072016AAC
S214050370E169C06980696061605960618161816118
S21405038041594059405920592051005160598061C2
S214050390815961598059244AC541C539C539E53958
S2140503A0E639E539C539E539E539E539E539E63971
S2140503B0E639063AE539E539E539E5390642E639F5
S2140503C0E639E539E539E539E539E539E539E53932
S2140503D0E639E639C539E539C539C539C539C539C1
S2140503E0C539C539C539C539A531A531C539A5318B
S2140503F0A531A531A531A431A5318431A531843186
S2140504008431843184318431642984318431843162
S2140504106429A431C85A8431642964296429632966
S2140504206329A429C65A6473647BE372016A8061F2
S21405043060618161A161216AA272E372447365738A
S214050440A673A573657BC272C27A216A81616069EB
S21405045080698069C0696372C47A4583848BA48B7E
S214050460E48BC48BA483C683E783E8832884298426
S214050470298C0984E883E8830884098C098C298CEF
S214050480498C498C698C8A948A948A946C8C2963E5
S214050490E5312642C53164296429642964298431F5
S2140504A084298431642984318429843184318431D2
S2140504B0A531842984318531A531A531A53184310D
S2140504C08431A531A5318431A531A53184318431F6
S2140504D0A531A531A531A531C539C531A531C539F2
S2140504E0C531C539C531C539C539C539C531A53152
S2140504F0C639C539C539A531E639E639A531C5390F
S214050500C539C531A531A531A531C539C531C53181
S214050510A531C539C539E539C539C539C531E539D1
S214050520E539C539C539C539C531C539E539C53999
S214050530C539E539E539C539E539E539E539E63900
S214050540E539A531C531C639A631A531C631C63915
S214050550C539C531C531C631E631C531C531C531B7
S214050560C631C631A531C631C631A531A531A5314D
S214050570A531A531A531C631A531A531A5318531C0
S214050580853185318531853184318531A531853192
S21405059085318531853185318531853184298429B3
S2140505A0853184298429843184318429A529A53176
S2140505B0A531A531A5318531A5318531A531A531C1
S2140505C0A531A531A531A531A531A531063A053A9E
S2140505D0053AA431A531E572448B6493649BA4A3C4
S2140505E064A344A3239BC292A18AA28A4182417A2C
S2140505F0017A0172E171806160616061A161A1614A
S2140506008161415941592151205100514059805924
S21405061080596051A1512452E539E639C539C539A5
S214050620C539E539E539E539E539E539E539E539F0
S214050630E539E539C539E539E639E639E639E639DC
S214050640E639E539E539E539E539E539E539E539AF
S214050650E639E539C539C539C539C539C539C5395F
S214050660C539C539A531C539A531C539C539A53108
S214050670C539A531C539A431A43184318431A431B5
S21405068084318431843184318431843184318431B8
S2140506908431E539675AE539654A2542843164313E
S2140506A064298429C55A65734473A26AE169806121
S2140506B0606181618161216AC272037344736573E7
S2140506C0857B447BE37AA2726172806140614069F2
S2140506D08069A169E169A47A4583858BA493848B97
S2140506E0A483A48BA583A783C783E883088C298C5A
S2140506F0098CA88BA88BE88B298C298C6A948A94FC
S2140507008A94AA94AB94CB9CCC9CCC9CCC9C696BD1
S2140507102742674AE53964296429642964298429B6
S214050720842984296429842984298431642984298F
S214050730843184318429843184318431843184310F
S214050740A431853185318431A531A5318431A43173
S214050750A531A531A531C531A531A531A531A531BF
S214050760A531A531A531A531A531A531A531A531CF
S214050770A531A531C539A531C531A531A531C53157
S214050780A531A531A531A531A531C531A531C5316F
S214050790C539C539C539C539C539C539C531C53967
S2140507A0C539A531C531C531C539C539C539C5318F
S2140507B0E539C531C539E539C539E539E539E639A6
S2140507C0A531C531C531A531A631C631A531C531ED
S2140507D0C531C639A531A531C531A631A631C531D4
S2140507E0C531C531C631A531E639C531A531A53185
S2140507F08531853185318531A53185318531842928
S214050800853185318531853184318529A529852927
S2140508108529A52985298429842984298429842943
S2140508208429842984298431843164318429853155
S214050830853185318531842985318531852985310F
S214050840A531A5318531A531C531A531A531A531EE
S214050850A531C531C539A78327A427AC06ACE6ABB9
S214050860E6B326AC67B406ACA5A3849B03930393B3
S214050870A28A8282417AC069806140616061806136
S214050880616141592151215120510051005140517A
S21405089060596159605124520542A539C539C53993
S2140508A0C539C539E639063AE639E539E539E5396A
S2140508B0E539E539C539C539E539E639E639E5397C
S2140508C0E539E539E539E539C539E539E539E5394E
S2140508D0C539C539C539C539C539C539C539C5391E
S2140508E0A531C539C539C539A531A531C539C53986
S2140508F0A531A4318431A431A431843184318431C5
S21405090084318431843184318431642964296429AD
S2140509108431C6414562E562046B046BA452044209
S21405092084318429C55A44732473836AC161605926
S214050930605960598159226AE3720473447344739B
S214050940047BC272A272E169806160616061606168
S214050950A169C1692272458BE693E593C48BA4838E
S21405096064838483A583E88BC883C883098C2A8C13
S2140509700994E98B09944A944A946B948B9CAC9C95
S214050980AC9CCC9C0DA52DADCBA48A9CC97B2963BC
S2140509900A5BC952C539642964296429642964290E
